{
    "contractName": "FakeProductDetection",
    "abi": [
        {
            "anonymous": false,
            "inputs": [
                {
                    "indexed": false,
                    "internalType": "uint256",
                    "name": "productId",
                    "type": "uint256"
                }
            ],
            "name": "ProductRegistered",
            "type": "event"
        },
        {
            "anonymous": false,
            "inputs": [
                {
                    "indexed": false,
                    "internalType": "uint256",
                    "name": "productId",
                    "type": "uint256"
                },
                {
                    "indexed": false,
                    "internalType": "bool",
                    "name": "isAuthentic",
                    "type": "bool"
                }
            ],
            "name": "ProductVerified",
            "type": "event"
        },
        {
            "inputs": [
                {
                    "internalType": "uint256",
                    "name": "",
                    "type": "uint256"
                }
            ],
            "name": "products",
            "outputs": [
                {
                    "internalType": "uint256",
                    "name": "productId",
                    "type": "uint256"
                },
                {
                    "internalType": "string",
                    "name": "manufacturer",
                    "type": "string"
                },
                {
                    "internalType": "string",
                    "name": "model",
                    "type": "string"
                },
                {
                    "internalType": "uint256",
                    "name": "manufacturingDate",
                    "type": "uint256"
                },
                {
                    "internalType": "string",
                    "name": "productionLocation",
                    "type": "string"
                }
            ],
            "stateMutability": "view",
            "type": "function"
        },
        {
            "inputs": [
                {
                    "internalType": "uint256",
                    "name": "productId",
                    "type": "uint256"
                },
                {
                    "internalType": "string",
                    "name": "manufacturer",
                    "type": "string"
                },
                {
                    "internalType": "string",
                    "name": "model",
                    "type": "string"
                },
                {
                    "internalType": "uint256",
                    "name": "manufacturingDate",
                    "type": "uint256"
                },
                {
                    "internalType": "string",
                    "name": "productionLocation",
                    "type": "string"
                }
            ],
            "name": "registerProduct",
            "outputs": [],
            "stateMutability": "nonpayable",
            "type": "function"
        },
        {
            "inputs": [
                {
                    "internalType": "uint256",
                    "name": "productId",
                    "type": "uint256"
                },
                {
                    "internalType": "string",
                    "name": "manufacturer",
                    "type": "string"
                },
                {
                    "internalType": "string",
                    "name": "model",
                    "type": "string"
                },
                {
                    "internalType": "uint256",
                    "name": "manufacturingDate",
                    "type": "uint256"
                },
                {
                    "internalType": "string",
                    "name": "productionLocation",
                    "type": "string"
                }
            ],
            "name": "verifyProduct",
            "outputs": [],
            "stateMutability": "nonpayable",
            "type": "function"
        }
    ],
    "bytecode": "608060405234801561001057600080fd5b50610816806100206000396000f3fe608060405234801561001057600080fd5b50600436106100415760003560e01c80637acc0b2014610046578063c9b3660d14610073578063df28ff4614610088575b600080fd5b610059610054366004610432565b61009b565b60405161006a959493929190610491565b60405180910390f35b610086610081366004610585565b610262565b005b610086610096366004610585565b610374565b600060208190529081526040902080546001820180549192916100bd90610621565b80601f01602080910402602001604051908101604052809291908181526020018280546100e990610621565b80156101365780601f1061010b57610100808354040283529160200191610136565b820191906000526020600020905b81548152906001019060200180831161011957829003601f168201915b50505050509080600201805461014b90610621565b80601f016020809104026020016040519081016040528092919081815260200182805461017790610621565b80156101c45780601f10610199576101008083540402835291602001916101c4565b820191906000526020600020905b8154815290600101906020018083116101a757829003601f168201915b5050505050908060030154908060040180546101df90610621565b80601f016020809104026020016040519081016040528092919081815260200182805461020b90610621565b80156102585780601f1061022d57610100808354040283529160200191610258565b820191906000526020600020905b81548152906001019060200180831161023b57829003601f168201915b5050505050905085565b6000848051906020012060008088815260200190815260200160002060010160405161028e919061065b565b60405180910390201480156102d2575083805190602001206000808881526020019081526020016000206002016040516102c8919061065b565b6040518091039020145b80156102ee575060008681526020819052604090206003015483145b80156103295750818051906020012060008088815260200190815260200160002060040160405161031f919061065b565b6040518091039020145b15610332575060015b6040805187815282151560208201527fe0d605e351806c0da2670999e1bf8d5f67756681343b80cdb952f3b56c3e79c3910160405180910390a1505050505050565b6040805160a0810182528681526020808201878152828401879052606083018690526080830185905260008981529182905292902081518155915190919060018201906103c19082610720565b50604082015160028201906103d69082610720565b5060608201516003820155608082015160048201906103f59082610720565b50506040518681527fbcc0e36116309da282dcf13bde248ef63930f4114b68999c8570a86ffb3ab305915060200160405180910390a15050505050565b60006020828403121561044457600080fd5b5035919050565b6000815180845260005b8181101561047157602081850181015186830182015201610455565b506000602082860101526020601f19601f83011685010191505092915050565b85815260a0602082015260006104aa60a083018761044b565b82810360408401526104bc818761044b565b905084606084015282810360808401526104d6818561044b565b98975050505050505050565b634e487b7160e01b600052604160045260246000fd5b600082601f83011261050957600080fd5b813567ffffffffffffffff80821115610524576105246104e2565b604051601f8301601f19908116603f0116810190828211818310171561054c5761054c6104e2565b8160405283815286602085880101111561056557600080fd5b836020870160208301376000602085830101528094505050505092915050565b600080600080600060a0868803121561059d57600080fd5b85359450602086013567ffffffffffffffff808211156105bc57600080fd5b6105c889838a016104f8565b955060408801359150808211156105de57600080fd5b6105ea89838a016104f8565b945060608801359350608088013591508082111561060757600080fd5b50610614888289016104f8565b9150509295509295909350565b600181811c9082168061063557607f821691505b60208210810361065557634e487b7160e01b600052602260045260246000fd5b50919050565b600080835461066981610621565b600182811680156106815760018114610696576106c5565b60ff19841687528215158302870194506106c5565b8760005260208060002060005b858110156106bc5781548a8201529084019082016106a3565b50505082870194505b50929695505050505050565b601f82111561071b57600081815260208120601f850160051c810160208610156106f85750805b601f850160051c820191505b8181101561071757828155600101610704565b5050505b505050565b815167ffffffffffffffff81111561073a5761073a6104e2565b61074e816107488454610621565b846106d1565b602080601f831160018114610783576000841561076b5750858301515b600019600386901b1c1916600185901b178555610717565b600085815260208120601f198616915b828110156107b257888601518255948401946001909101908401610793565b50858210156107d05787850151600019600388901b60f8161c191681555b5050505050600190811b0190555056fea2646970667358221220ddaaeea9b5e015071a3286eb467332aee43ca8eb6e49006ae3492940444031a764736f6c63430008130033",
    "sourcePath": "c:/Users/ammar/Downloads/Eth/MyContract.sol",
    "compiler": {
        "name": "solc",
        "version": "0.8.19+commit.7dd6d404"
    },
    "functionHashes": {
        "products(uint256)": "7acc0b20",
        "registerProduct(uint256,string,string,uint256,string)": "df28ff46",
        "verifyProduct(uint256,string,string,uint256,string)": "c9b3660d"
    },
    "gasEstimates": {
        "creation": {
            "codeDepositCost": "414000",
            "executionCost": "449",
            "totalCost": "414449"
        },
        "external": {
            "products(uint256)": "infinite",
            "registerProduct(uint256,string,string,uint256,string)": "infinite",
            "verifyProduct(uint256,string,string,uint256,string)": "infinite"
        }
    }
}